:100000000C945D000C94EB080C9498080C948500FB
:100010000C9485000C9485000C9485000C9485004C
:100020000C9485000C9485000C9485000C94F106CA
:100030000C9485000C9485000C9485000C9485002C
:100040000C944F060C9485000C94BF060C949906F2
:100050000C9485000C9485000C9485000C9485000C
:100060000C9485000C9485000000000024002700FB
:100070002A0000000000250028002B0004040404CE
:100080000404040402020202020203030303030342
:10009000010204081020408001020408102001021F
:1000A00004081020000000080002010000030407FB
:1000B0000000000000000000940911241FBECFEFD3
:1000C000D8E0DEBFCDBF14E0A0E0B1E0EAECF7E29B
:1000D00002C005900D92A83DB107D9F726E0A8ED22
:1000E000B4E001C01D92AD30B207E1F710E0CDE5FC
:1000F000D0E004C02197FE010E94DC10CC35D1076E
:10010000C9F70E94FB090C94E3130C94000090E0E3
:10011000FC01EC55FF4F2491FC01E057FF4F349157
:10012000FC01E458FF4FE491EE23C9F0222339F09B
:10013000233001F1A8F4213019F1223029F1F0E047
:10014000EE0FFF1FEE58FF4FA591B4918FB7F894B3
:10015000EC91611126C030953E233C938FBF0895EA
:100160002730A9F02830C9F0243049F78091800069
:100170008F7D03C0809180008F7780938000DFCFD8
:1001800084B58F7784BDDBCF84B58F7DFBCF809125
:10019000B0008F778093B000D2CF8091B0008F7D78
:1001A000F9CF3E2BDACFCF93DF9390E0FC01E057FD
:1001B000FF4F249184589F4FFC0184918823D1F0F4
:1001C00090E0880F991FFC01E859FF4FA591B49169
:1001D000FC01EE58FF4FC591D49161110EC09FB73D
:1001E000F8948C91E22FE0958E238C932881E22362
:1001F000E8839FBFDF91CF9108958FB7F894EC917A
:10020000E22BEC938FBFF6CFAF92BF92CF92DF92EB
:10021000EF92FF920F931F93CF93DF936C017B01BB
:100220008B01040F151FEB015E01AE18BF08C0174C
:10023000D10759F06991D601ED91FC910190F081BF
:10024000E02DC6010995892B79F7C501DF91CF9182
:100250001F910F91FF90EF90DF90CF90BF90AF90E4
:100260000895FC01538D448D252F30E0842F90E0BC
:10027000821B930B541710F0CF96089501970895A1
:10028000FC01918D828D981761F0A28DAE0FBF2F6A
:10029000B11D5D968C91928D9F5F9F73928F90E0C0
:1002A00008958FEF9FEF0895FC01918D828D98172F
:1002B00031F0828DE80FF11D858D90E008958FEF6C
:1002C0009FEF0895FC01918D228D892F90E0805C35
:1002D0009F4F821B91098F73992708958AE395E0B8
:1002E0000E94620121E0892B09F420E0822F089509
:1002F00080E090E0892B29F00E946E0181110C941E
:1003000000000895FC01A48DA80FB92FB11DA35AB8
:10031000BF4F2C91848D90E001968F739927848F25
:10032000A689B7892C93A089B1898C918370806448
:100330008C93938D848D981306C00288F389E02DE9
:1003400080818F7D80830895EF92FF920F931F939A
:10035000CF93DF93EC0181E0888F9B8D8C8D981378
:100360001AC0E889F989808185FF15C09FB7F89484
:10037000EE89FF896083E889F989808183708064D0
:1003800080839FBF81E090E0DF91CF911F910F911B
:10039000FF90EF900895F62E0B8D10E00F5F1F4F2A
:1003A0000F731127E02E8C8D8E110CC00FB607FC39
:1003B000FACFE889F989808185FFF5CFCE010E94C7
:1003C0008201F1CFEB8DEC0FFD2FF11DE35AFF4FB2
:1003D000F0829FB7F8940B8FEA89FB898081806255
:1003E000CFCFCF93DF93EC01888D8823B9F0AA8912
:1003F000BB89E889F9898C9185FD03C0808186FDE0
:100400000DC00FB607FCF7CF8C9185FFF2CF80812E
:1004100085FFEDCFCE010E948201E9CFDF91CF9120
:100420000895CF92DF92EF92FF9269017A01A09135
:10043000B401B091B5019B01AC010E94ED10DC014B
:10044000CB018C199D09AE09BF09209114052130FB
:1004500049F0223009F450C0C601FF90EF90DF90C0
:10046000CF900895181619061A061B0634F55F9AE0
:10047000109285001092840082E080936F0080913A
:10048000F1049091F2040297D4F310926F0010924D
:100490008500109284008FEFC81AD80AE80AF80A7B
:1004A0001092F2041092F1041092E4041092F204FB
:1004B0001092F1041092E404CFCF892B8A2B8B2B5E
:1004C00009F43FC05F98109285001092840082E08A
:1004D00080936F008091F1049091F2040297D4F31D
:1004E00010926F00109285001092840081E0C81A6B
:1004F000D108E108F108D4CF181619061A061B0610
:1005000074F42D9A109285001092840020936F004D
:100510008091F1049091F2040297D4F3B6CF892B25
:100520008A2B8B2B71F02D981092850010928400ED
:1005300020936F008091F1049091F2040297D4F31C
:10054000CFCF10926F00B2CF089590E080E0089571
:10055000FF920F931F93CF93DF93EC018B01FB016D
:10056000F0800E947510F81621F06F2DCE010E94C8
:100570007D10F801F1802196CE010E947510F816C9
:1005800021F06F2DCE010E947D10C801DF91CF9127
:100590001F910F91FF9008950F931F93CF93DF93B7
:1005A0008C01EB010E9475108883C80101960E949E
:1005B00075108983CE01DF91CF911F910F9108951E
:1005C000FB0101900020E9F73197AF01461B570B63
:1005D000DC01ED91FC910280F381E02D099464E24D
:1005E00075E087ED95E00C94E002CF93DF93EC018A
:1005F00060E08E810E94870061E08E810E9487000A
:1006000060E08E810E9487008BE891E00197F1F70E
:10061000DF91CF910895CF92DF92EF92FF920F93E7
:100620001F93CF93DF936C017C0187E0E80EF11CF0
:10063000D0E0C0E0062F10E0B8010C2E02C0759586
:1006400067950A94E2F76170F70181917F010E943A
:1006500087002196C430D10579F7C601DF91CF918B
:100660001F910F91FF90EF90DF90CF900C94F502C7
:10067000CF92DF92EF92FF920F931F93CF93DF936E
:10068000EC01F62E642F8C810E9487008D818F3FB4
:1006900019F060E00E9487000F2D10E08F8584FF25
:1006A00025C06E0187E0C80ED11CF12CE12CB801E9
:1006B0000E2C02C0759567950A94E2F76170F601F9
:1006C00081916F010E948700FFEFEF1AFF0A88E017
:1006D000E816F10461F7CE01DF91CF911F910F91E0
:1006E000FF90EF90DF90CF900C94F502B80184E07A
:1006F000759567958A95E1F7CE010E940B036F2DE2
:10070000CE01DF91CF911F910F91FF90EF90DF907D
:10071000CF900C940B0341E00E94380381E090E0FD
:10072000089540E00C9438038093F0056093EF0542
:10073000643008F063E09091EA05691710F06FEFFC
:10074000690FE62FF0E0E952FA4F6489680F60689C
:1007500087ED95E00C949103EF92FF920F931F9316
:10076000CF93DF93D0911805C5E2CD9F800111246E
:1007700001521E4FF801E68CF78CF7012081318180
:100780008091DD049091DE0428173907B1F1F8015A
:1007900061818AE00E949403F80144A1F70120815D
:1007A0003181429FC001439F900D11249F938F93ED
:1007B000DC9FC001112489509E4F9F938F9384E248
:1007C00095E09F938F930E940B110E94EF02E0919E
:1007D0001805CE9FF0011124E152FE4F068CF78DD3
:1007E000E02D808191819093DE048093DD040F9051
:1007F0000F900F900F900F900F90DF91CF911F915E
:100800000F91FF90EF900895EF92FF920F931F9337
:10081000CF93DF938C017A01677088E0689FB00105
:1008200011246064C8010E949103E701A8E0EA0E68
:10083000F11C6991D801ED91FC910190F081E02DBE
:10084000C8010995CE15DF05A1F7DF91CF911F9162
:100850000F91FF90EF9008950F931F93CF93DF9325
:10086000EC0180E4860F803208F060C0862F805C47
:10087000990BFC01E154FE4F6081643108F056C0D1
:10088000462F50E08E01040F151FD80192968C91CF
:10089000E7E0882349F0DE015A96E0E09D91891750
:1008A00019F0EF5FE730D1F7EC0FFD2FF11D628DEE
:1008B000CE17DF0721F0918D928F3197F9CF6A8F94
:1008C00081112FC0FE01B296CE01C696219126134A
:1008D00003C0DF0111971C928E179F07B9F7F8012B
:1008E00062A383E0440F551F8A95E1F740505F4FA4
:1008F0006150CE010E940404688D6850688FE98DB4
:10090000E43008F0E3E08B89E81710F0EFEFE80F30
:10091000EC0FFD2FF11D8489680F6068CE010E94E5
:100920009103D8019296EC916FEF6E0FCE010E9469
:100930008B03888D8F5F888FDF91CF911F910F91EF
:100940000895CF93C42F0E9494036C2F87ED95E0F8
:10095000CF910C942C04CF93DF93D62FE091180500
:10096000C5E2CE9FF0011124E152FE4F40E26181C9
:100970000E94A104E0911805CE9FF0011124E152DC
:10098000FE4F40E261818D2F0E94A104E091180585
:10099000CE9FF0011124E152FE4F4EE3618180E0D1
:1009A000DF91CF910C94A104CF93DF93D62FE091E8
:1009B0001805C5E2CE9FF0011124E152FE4F4EE32F
:1009C00061810E94A104E0911805CE9FF0011124DD
:1009D000E152FE4F4CE361818D2F0E94A104E09112
:1009E0001805CE9FF0011124E152FE4F40E26181D3
:1009F00080E0DF91CF910C94A10461E00E9491030B
:100A00008BE39FE10197F1F708950F931F93CF9325
:100A1000DF93EC01413019F08F8588608F874B8B15
:100A20001C8A80E48D8B6E8B605C6F8B61E08C81A7
:100A30000E94D3008D818F3F19F061E00E94D300A6
:100A400061E08E810E94D3008E0198012C1B3D0B2A
:100A50008F8584FD0DC084E090E00F5F1F4F281745
:100A600039074CF461E0F80186810E94D300EDCF94
:100A700088E090E0F2CF8BE39DE00197F1F760E032
:100A80008C810E94870060E08E810E9487008D81AA
:100A90008F3F19F060E00E9487006F8564FD34C0CD
:100AA00063E0CE010E940B030BE416E4C80101973A
:100AB000F1F763E0CE010E940B03C8010197F1F743
:100AC00063E0CE010E940B0383E592E00197F1F70A
:100AD00062E0CE010E940B036F856062CE010E942E
:100AE000910384E0888B6CE0CE010E949103CE01DB
:100AF0000E94FD0482E0898B66E0CE01DF91CF91F8
:100B00001F910F910C9491036062CE010E9491039A
:100B10008BE496E40197F1F76F856062CE010E9445
:100B2000910383E592E00197F1F76F856062CE0152
:100B30000E949103D1CF0F931F93CF93DF93E09146
:100B40001805C5E2CE9FF0011124E152FE4FD0817D
:100B50008091DC04D81709F461C087ED95E00E940C
:100B6000FD04CD9FC0011124FC01E152FE4FA68D72
:100B7000B78D64A14D915C91649F9001659F300D8C
:100B800011243F932F938F519E4F9F938F9304E295
:100B900015E01F930F930E940B110E94EF0261E07A
:100BA00080E00E949403E0911805CE9FF00111248B
:100BB000E152FE4F208130E02F5F3F4FC29FC001C6
:100BC000C39F900D1124FC01E152FE4FA68DB78DFD
:100BD00064A14D915C91649F9001659F300D11243B
:100BE0003F932F938F519E4F9F938F931F930F93FC
:100BF0000E940B110E94EF02E0911805CE9FF001B8
:100C00001124E152FE4F80818093DC048DB79EB7A2
:100C10000C960FB6F8949EBF0FBE8DBF809118053D
:100C20004EE380FF1FC061E080E00E94A10440E22B
:100C300060E080E00E94A104E0911805E250EC30F1
:100C400048F5F0E0EA5DF94F0C94DC1039063906FE
:100C5000420642064206420647064A063906390659
:100C60004706470660E080E00E94A10440E261E0A0
:100C7000E0CF41E061E08FE0DF91CF911F910F91D4
:100C80000C94A10441E061E08FE00E94A10440E0E7
:100C900060E0F1CFDF91CF911F910F9108951F92E6
:100CA0000F920FB60F9211242F933F938F939F9320
:100CB000AF93BF938091200590912105A0912205CB
:100CC000B091230530911F0523E0230F2D3758F5F0
:100CD0000196A11DB11D20931F05809320059093BF
:100CE0002105A0932205B093230580911B059091C7
:100CF0001C05A0911D05B0911E050196A11DB11DF9
:100D000080931B0590931C05A0931D05B0931E05B1
:100D1000BF91AF919F918F913F912F910F900FBEF7
:100D20000F901F90189526E8230F0296A11DB11D64
:100D3000D2CF1F920F920FB60F9211242F933F9391
:100D40004F935F936F937F938F939F93AF93BF93D3
:100D5000EF93FF938AE395E00E948201FF91EF9168
:100D6000BF91AF919F918F917F916F915F914F91C3
:100D70003F912F910F900FBE0F901F9018951F92CB
:100D80000F920FB60F9211242F938F939F93EF938F
:100D9000FF93E0914A05F0914B058081E091500569
:100DA000F091510582FD1BC09081809153058F5FAA
:100DB0008F7320915405821741F0E0915305F0E0C4
:100DC000E65CFA4F958F80935305FF91EF919F91C9
:100DD0008F912F910F900FBE0F901F9018958081CB
:100DE000F4CF1F920F920FB60F9211242F933F93BF
:100DF0004F935F936F937F938F939F93AF93BF9323
:100E0000EF93FF9380911505882309F45CC110923C
:100E100014058091F5049091F604A091F704B09127
:100E2000F80480389C40A105B10508F0C3C05C9A65
:100E30002091F3043091F40454E0359527955A95A8
:100E4000E1F74091F9045091FA0488EC90E0841B9A
:100E5000950B821793070CF42C9A8091F1049091D2
:100E6000F204069754F48091F1049091F2040196F3
:100E70009093F2048093F104F0CF1092F204109258
:100E8000F1045C982091F3043091F40444E035952A
:100E900027954A95E1F74091F9045091FA0488ECBE
:100EA00090E0841B950B821793070CF42C9880918B
:100EB000F3049091F40401969093F4048093F30466
:100EC0008091F3049091F40480399C406CF010926E
:100ED000F4041092F30480910005909101050196AD
:100EE00090930105809300052091B2013091B301E8
:100EF00045E0429FC001439F900D112497FD0F963E
:100F000024E0959587952A95E1F7092E000CAA0B08
:100F1000BB0B8093ED049093EE04A093EF04B09389
:100F2000F0042091F5043091F6044091F7045091BB
:100F3000F8046091ED047091EE048091EF049091BB
:100F4000F0040E948B106093E9047093EA0480938C
:100F5000EB049093EC042091E9043091EA04409171
:100F6000EB045091EC0460E073EA81EE91E10E94A1
:100F70009B102093E5043093E6044093E7045093DC
:100F8000E8048091E5049091E604A091E704B09113
:100F9000E8040097A140B10508F048C08091E5043D
:100FA0009091E604A091E704B091E8049093890041
:100FB000809388008091F5049091F604A091F70445
:100FC000B091F80480389C40A105B10508F468C0D0
:100FD0008091020590910305909389008093880089
:100FE0005C9A2091F3043091F40494E035952795B0
:100FF0009A95E1F74091F9045091FA0488EC90E059
:10100000841B950B821793070CF42C9A8091F104A2
:101010009091F20406976CF48091F1049091F2049F
:1010200001969093F2048093F104F0CF8FEF9FEF3D
:10103000BDCF1092F2041092F1045C982091F30459
:101040003091F40484E0359527958A95E1F7409135
:10105000F9045091FA0488EC90E0841B950B8217F8
:1010600093070CF42C988091F3049091F40401966A
:101070009093F4048093F3048091F3049091F4042A
:1010800080399C406CF01092F4041092F30480912B
:10109000000590910105019690930105809300054C
:1010A0008091F5049091F604A091F704B091F804B2
:1010B0000196A11DB11D8093F5049093F604A093B1
:1010C000F704B093F8048091F1049091F204019632
:1010D0009093F2048093F1048091E40491E08927D5
:1010E0008093E404809114058130C1F48091E4047C
:1010F000882391F05C9AFF91EF91BF91AF919F91FE
:101100008F917F916F915F914F913F912F910F90B0
:101110000FBE0F901F9018955C98EDCF823059F755
:101120008091E404882311F02C9AE5CF2C98E3CF2A
:101130001F920F920FB60F9211242F934F935F932C
:101140006F937F938F939F93AF93BF932FB7F89431
:101150008091200590912105A0912205B091230551
:101160002FBF4091E0045091E1046091E20470913E
:10117000E304841B950BA60BB70B8C329140A105A1
:10118000B105D8F02FB7F8948091200590912105F2
:10119000A0912205B09123052FBF8093E004909386
:1011A000E104A093E204B093E30481E08093170587
:1011B0009091150591118093FC04BF91AF919F917F
:1011C0008F917F916F915F914F912F910F900FBEF3
:1011D0000F901F9018951F920F920FB60F92112427
:1011E0002F933F938F939F93AF93BF93EF93FF936F
:1011F00089B18472803259F49091DF04943089F47B
:101200002FEF3FEF30931A05209319050CC0811181
:101210000AC09091DF04943209F07CC021E030E0F4
:10122000F1CF943269F38093DF0480911505882310
:1012300081F18091190590911A05892B51F1209126
:10124000190530911A058091060590910705820FC6
:10125000931F909307058093060510921A0510922C
:1012600019058091060590910705181619060CF0CE
:1012700055C080910605909107058D3291400CF084
:1012800050C08091060590910705909307058093C3
:10129000060580911605882381F1809119059091AA
:1012A0001A05892B51F12091190530911A05E09109
:1012B000180585E2E89FF0011124E152FE4FA68D4A
:1012C000B78D8D919C911197820F931F11969C93CE
:1012D0008E9310921A05109219052D913C91119739
:1012E00080A191A12817390734F082A193A1281772
:1012F00039070CF4C9018D939C93FF91EF91BF9135
:10130000AF919F918F913F912F910F900FBE0F90B2
:101310001F901895943009F086CF80CF81E090E03F
:10132000B4CF8CE291E0B1CFCF93DF93EAE3F5E065
:101330001382128288EE93E0A0E0B0E0848395836C
:10134000A683B7838DE794E09183808385EC90E05A
:101350009587848784EC90E09787868780EC90E07F
:10136000918B808B81EC90E0938B828B82EC90E070
:10137000958B848B86EC90E0978B868B118E128EEA
:10138000138E148EC7EDD5E01B821A828FE894E08D
:10139000998388838EE08C838FEF8D838FE08E839B
:1013A00080E18F8381E1888782E1898783E18A8771
:1013B0001B861C861D861E861F8641E060E1CE01CD
:1013C0000E9405058BE994E099838883188E198E15
:1013D00088E0E7EBF1E0A1EFB5E001900D928A958E
:1013E000E1F7E9EFF5E084E1DF011D928A95E9F785
:1013F000DF91CF910895789484B5826084BD84B5DF
:10140000816084BD85B5826085BD85B5816085BDFF
:1014100080916E00816080936E00109281008091B7
:10142000810082608093810080918100816080933F
:101430008100809180008160809380008091B10064
:1014400084608093B1008091B00081608093B0008F
:1014500080917A00846080937A0080917A00826023
:1014600080937A0080917A00816080937A008091E5
:101470007A00806880937A001092C100E0914A055A
:10148000F0914B0582E08083E0914605F09147059D
:101490001082E0914805F09149058FEC808310920D
:1014A0005205E0914E05F0914F0586E08083E09172
:1014B0004C05F0914D05808180618083E0914C0561
:1014C000F0914D05808188608083E0914C05F0911A
:1014D0004D05808180688083E0914C05F0914D0539
:1014E00080818F7D80836EEF74E090E080E00E94C9
:1014F000CC0269EF74E082E090E00E94CC0262EBE3
:1015000071E084E090E00E94CC0260EB71E086E044
:1015100090E00E94CC0288E090E00E9475108093D9
:10152000B60160E082E00E94D30060E083E00E94A8
:10153000D30061E084E00E94D30060E085E00E9477
:10154000D30061E087E00E94D30061E088E00E9460
:10155000D30061E08CE00E94D30061E08DE00E9446
:10156000D30061E08AE00E94D30060E08BE00E943B
:10157000D30061E08EE00E94D30061E08FE00E9422
:10158000D30061E080E10E94D30061E081E10E942C
:10159000D30061E082E10E94D30061E083E10E9418
:1015A000D30061E088E00E94870061E08BE00E9448
:1015B000870048EA51E060E087ED95E00E9404046E
:1015C00040EA51E061E087ED95E00E940404F89460
:1015D00089E08093690093E09DBB1CBA1092800063
:1015E0008093810080E29EE490938900809388003C
:1015F00044E064E187ED95E00E94050581EE91E00D
:101600009F938F93C4E2D5E0DF93CF930E940B1199
:101610000E94EF0261E080E00E94940386E092E085
:101620009F938F93DF93CF930E940B110E94EF0241
:101630004EE360E080E00E94A10478948DB79EB7ED
:1016400008960FB6F8949EBF0FBE8DBF412CFEE3E7
:101650005F2EF9E46F2E712C0CEA14E06801809182
:10166000190590911A05892B81F1E0911805EE304A
:1016700030F5F0E0E25CF44F0C94DC104C0B820B84
:101680009A0BAD0BC20BD70BEC0BFF0B120C5F0BC5
:101690002A0C3D0C500C630C8091190590911A0591
:1016A00097FD44C08091190590911A0502970CF09E
:1016B0003FC08091190590911A05809318051092EA
:1016C0001A05109219050E949B0580911705882321
:1016D00009F418C1E0911805EE3008F00FC1F0E0F0
:1016E000EC58F44F0C94DC107B0C8F0C910CA30C79
:1016F000BE0CD00CE90C170D840F7E0C870FDD0F8C
:101700003D1054108091190590911A058F3F9F4FFD
:101710006CF08091190590911A051816190644F07D
:101720008091190590911A058F5FC7CF80E0C5CFD2
:1017300081E0C3CF8091190590911A0597FD86C06D
:101740008091190590911A0507970CF081C080913E
:10175000190590911A058E5FB0CF8091190590916F
:101760001A058F3F9F4F0CF471C08091190590911D
:101770001A0506970CF06CC08091190590911A0516
:101780008D5F9BCF8091190590911A058E3F9F4FD9
:101790000CF45CC08091190590911A0505970CF026
:1017A00057C08091190590911A058C5F86CF809162
:1017B000190590911A058D3F9F4F0CF447C08091F9
:1017C000190590911A0504970CF042C080911905F3
:1017D00090911A058B5F71CF8091190590911A0530
:1017E0008C3F9F4F9CF18091190590911A050397AA
:1017F0007CF58091190590911A058A5F5ECF8091E2
:10180000190590911A058B3F9F4F04F1809119059E
:1018100090911A050297E4F48091190590911A05A8
:10182000895F4BCF8091190590911A058A3F9F4F90
:101830006CF08091190590911A051816190644F05C
:101840008091190590911A05885F37CF82E035CFD6
:1018500088E033CF8091190590911A0597FD47C014
:101860008091190590911A0504970CF042C080915F
:10187000190590911A05865F20CF809119059091E6
:101880001A058F3F9F4F9CF18091190590911A0581
:1018900003977CF58091190590911A05855F0DCF0E
:1018A0008091190590911A058E3F9F4F04F1809108
:1018B000190590911A050297E4F480911905909109
:1018C0001A05845FFACE8091190590911A058D3F13
:1018D0009F4F6CF08091190590911A051816190602
:1018E00044F08091190590911A05835FE6CE8AE055
:1018F000E4CE8DE0E2CE82E08093180510921705C9
:101900000E949B0580E090E0892B09F4A8CE0E94FC
:101910006E01882309F4A3CE0E940000A0CE8AE0C5
:10192000EBCF6DE070E089E090E00E94D40410926B
:10193000170581E080931605809117058111AFC3CB
:101940000E94AC03F9CF6EE070E087E090E00E9467
:10195000D4041092170581E0809316058091170535
:10196000811103C00E94AC03F9CF109216056EE0FE
:1019700070E087E090E00E94AB04C0CF6DE070E0C3
:1019800089E090E00E94D4041092170581E08093D2
:10199000160580911705811182C30E94AC03F9CF0F
:1019A0006CE070E089E090E00E94D404109217058A
:1019B00081E08093160580911705811103C00E9474
:1019C000AC03F9CF109216056CE070E089E090E06E
:1019D000D2CF109217058091B6018130B9F48FEF04
:1019E0008093B6018091B601813091F44EE360E0BE
:1019F0008CE00E94A1044EE360E08DE00E94A1040F
:101A00004EE360E08EE00E94A10478CF81E0E8CF51
:101A10008F3F09F073CF4CE360E08CE00E94A1049B
:101A20004CE360E08DE00E94A1044CE3EACF109209
:101A300017051092160581E08093150563EA74E09E
:101A40008AE395E00E94E00269EA74E08AE395E0A7
:101A50000E94E0026EEF74E090E080E00E94A80235
:101A600069EF74E082E090E00E94A80262EB71E00E
:101A700084E090E00E94A80260EB71E086E090E0D4
:101A80000E94A802C091B60188E090E00E94751003
:101A9000C81729F06C2F88E090E00E947D1060E06C
:101AA00088E00E94870061E087E00E9487008091C3
:101AB000B601813009F0F2C02D9887ED95E00E94C3
:101AC000FD048091B1018F938091B0018F9380913B
:101AD00005058F93809104058F938091FF048F9368
:101AE0008091FE048F93809101058F938091000572
:101AF0008F9387EE93E09F938F93C4E2D5E0DF93BB
:101B0000CF930E940B110E94EF0261E080E00E94DF
:101B100094032091F9043091FA0442E3429FC001FA
:101B2000439F900D11249F938F938091B3018F93C6
:101B30008091B2018F938CE094E09F938F93DF9319
:101B4000CF930E940B110E94EF0210921705109282
:101B500016058091B2019091B3019093070580938F
:101B600006058DB79EB744960FB6F8949EBF0FBE7C
:101B70008DBF5E0120910405309105058091B00173
:101B80009091B101281739070CF097C18FEF9FEFA3
:101B900090938900809388002091B2013091B30125
:101BA00074E0220F331F7A95E1F7032E000C440BEB
:101BB000550BC301B2010E94BD1030930305209361
:101BC0000205E2E0FE2E63E0E62E20910005309152
:101BD00001058091FE049091FF04281739070CF04D
:101BE000BFC083B188708093FD048091FD04882379
:101BF00009F459C010926F0083B188708093FD047E
:101C0000FDBA80910605909107059093B3018093EA
:101C1000B201EDBA61E082E00E9494038091B301C9
:101C20008F938091B2018F931F930F93DF93CF9384
:101C30000E940B110E94EF022091B2013091B3017A
:101C400054E0220F331F5A95E1F7032E000C440B8A
:101C5000550BC301B2010E94BD10309303052093C0
:101C600002058091FC040F900F900F900F900F9041
:101C70000F90882309F4B9CF109217051092FC0435
:101C80009090FB0461E0911001C060E088E00E9448
:101C9000870081E098269092FB04A7CF8F3F09F040
:101CA0000CCF2D9A0ACF60E088E00E948700F09266
:101CB0006F00809101058F93809100058F931F9392
:101CC0000F93DF93CF930E940B1160E081E00E949D
:101CD00094030E94EF02FDBA8091060590910705DA
:101CE0009093B3018093B201EDBA0F900F900F90D3
:101CF0000F900F900F908091000590910105029731
:101D00000CF463CF61E082E00E9494038091B30100
:101D10008F938091B2018F93DF92CF92BF92AF9257
:101D20000E940B110E94EF022091B2013091B30189
:101D300044E0220F331F4A95E1F7032E000C440BB9
:101D4000550BC301B2010E94BD10309303052093CF
:101D500002050F900F900F900F900F900F9033CFC0
:101D600010926F00809101058F93809100058F93F1
:101D70001F930F93DF93CF930E940B1160E081E0DC
:101D80000E9494030E94EF02E0900405F090050584
:101D90009FEFE91AF90AF0920505E092040560E068
:101DA0008AE00E949403FF92EF9281EB94E09F936C
:101DB0008F93DF93CF930E940B110E94EF028DB798
:101DC0009EB70C960FB6F8949EBF0FBE8DBF2091A4
:101DD0000405309105058091B0019091B10128175B
:101DE000390709F4C7CE61E080E00E94940366EBF6
:101DF00074E084E295E00E9404110E94EF021092C8
:101E00001705809117058823E1F31092170561E00B
:101E100080E00E9494032091F9043091FA0442E397
:101E2000429FC001439F900D11249F938F938091F7
:101E3000B3018F938091B2018F938CE094E09F93D4
:101E40008F93DF93CF930E940B110E94EF028DB707
:101E50009EB708960FB6F8949EBF0FBE8DBF8091B7
:101E6000B601813021F58FEF8093B6018091B601E4
:101E70008130F9F42D9810920105109200051F92FF
:101E80001F921F930F93DF93CF930E940B1160E07B
:101E900081E00E9494030E94EF0282E080936F0031
:101EA0000F900F900F900F900F900F9063CE81E0E6
:101EB000DBCF8F3F01F72D9ADECF61E088E00E94F3
:101EC000870061E080E00E94940367EC74E084E2A4
:101ED00095E00E9404110E94EF0210921705809174
:101EE00017058823E1F3109217051092FC04109255
:101EF000180510920505109204051092150587ED3E
:101F000095E00E94FD04FACC10921805F7CC6EE023
:101F100070E089E090E00E94D40410921705C1E0BF
:101F2000C093160560E088E00E948700C093140506
:101F30002091B4013091B501032E000C440B550BD8
:101F400060E47DE083E090E00E94BD103093890062
:101F500020938800C5E280911705811185C00E94F9
:101F6000AC0320911005309111054091120550915C
:101F70001305E0911805CE9FF0011124E152FE4FA8
:101F8000068CF78DE02D6081718194E0660F771FDC
:101F90009A95E1F7072E000C880B990B0E9411020D
:101FA000092E000CAA0BBB0B809310059093110512
:101FB000A0931205B0931305CECF6EE070E089E0D8
:101FC00090E00E94D4041092170581E080931605DA
:101FD00060E088E00E94870082E0809314052091F1
:101FE000B4013091B501032E000C440B550B60E495
:101FF0007DE083E090E00E94BD1030938900209343
:102000008800C5E28091170581112EC00E94AC03A3
:1020100020910C0530910D0540910E0550910F0552
:10202000E0911805CE9FF0011124E152FE4F068C7D
:10203000F78DE02D6081718184E0660F771F8A95AE
:10204000E1F7072E000C880B990B0E941102092E54
:10205000000CAA0BBB0B80930C0590930D05A0936D
:102060000E05B0930F05CECF1092160561E088E003
:102070000E9487006EE070E0A9CC6DE070E089E01E
:1020800090E00E94D4041092170581E08093160519
:1020900080911705811103C00E94AC03F9CF109203
:1020A00016056DE070E092CC1092180510920B05A9
:1020B00010920A05109209051092080581E090E03F
:1020C0009093B5018093B401109210051092110500
:1020D000109212051092130510920C0510920D0526
:1020E00010920E0510920F0509CCF999FECF92BD02
:1020F00081BDF89A992780B50895262FF999FECFCA
:102100001FBA92BD81BD20BD0FB6F894FA9AF99A14
:102110000FBE01960895DB018F939F930E94E210FA
:10212000BF91AF91A29F800D911DA39F900DB29F73
:10213000900D11240895A1E21A2EAA1BBB1BFD01CC
:102140000DC0AA1FBB1FEE1FFF1FA217B307E40796
:10215000F50720F0A21BB30BE40BF50B661F771FEE
:10216000881F991F1A9469F76095709580959095CE
:102170009B01AC01BD01CF010895052E97FB1EF414
:1021800000940E94D41057FD07D00E949B1007FCBA
:1021900003D04EF40C94D410509540953095219571
:1021A0003F4F4F4F5F4F0895909580957095619583
:1021B0007F4F8F4F9F4F0895EE0FFF1F0590F491B3
:1021C000E02D09940E94F510A59F900DB49F900DED
:1021D000A49F800D911D11240895B7FF0C94E21067
:1021E0000E94E210821B930B0895A29FB001B39F3F
:1021F000C001A39F700D811D1124911DB29F700D10
:10220000811D1124911D0895FB01DC0101900D92A7
:102210000020E1F70895AEE0B0E0E1E1F1E10C94D7
:10222000BA130D891E8986E08C831A8309838FEF88
:102230009FE79E838D83AE01475E5F4F6F89788DE8
:10224000CE0101960E942E112F813885020F131F97
:10225000F80110822E96E4E00C94D613ABE0B0E0C7
:10226000E4E3F1E10C94AC137C013B018A01FC0135
:1022700017821682838181FFC8C1CE0101965C015D
:10228000F7019381F30193FD859193FF81913F01C4
:10229000882309F453C1853239F493FD859193FF66
:1022A00081913F01853229F4B70190E00E941E130D
:1022B000E7CF912C212C312CFFE1F31538F08B3234
:1022C00011F190F4803209F1833229F137FC3CC0DE
:1022D00020ED280F2A3050F536FE20C08AE0989E67
:1022E000200D1124922E06C08D3291F0803371F7AB
:1022F000689430F8F30193FD859193FF81913F013C
:102300008111DACF21C0689431F8689432F8F2CFA5
:10231000689433F8EFCF689434F8ECCFEAE02E9E5F
:10232000200D1124222E689435F8E4CF8E3229F442
:1023300036FC04C1689436F8DDCF8C3619F4689405
:1023400037F8D8CF8836B1F2982F9F7D95549330C7
:10235000E0F08336A1F18337C1F1833509F063C022
:102360002801F2E04F0E511CF801C080D180692D88
:1023700070E036FC02C06FEF7FEFC6010E940813C9
:102380004C01689437F882010AC00C5F1F4FFFE3CD
:10239000F98388248394912C6501E89437F833FEFF
:1023A0002DC0522C8114910471F5552009F468CF89
:1023B000B70180E290E00E941E135A94F6CFF80114
:1023C000808189830E5F1F4FE4CF2801F2E04F0E1A
:1023D000511CF801C080D180692D70E036FC02C02C
:1023E0006FEF7FEFC6010E9413134C018201D5CF1E
:1023F000B70180E290E00E941E132A942814190469
:1024000009F0B0F7CECFF60137FC859137FE819108
:102410006F01B70190E00E941E1351105A94F1E031
:102420008F1A9108BFCF843619F0893609F077C02A
:10243000F80137FE6BC060817181828193810C5FEE
:102440001F4FF32DFF763F2E97FF09C09095809583
:10245000709561957F4F8F4F9F4F689437F82AE0B2
:1024600030E0A5010E944E13C82ECA188C2C432CB4
:1024700036FE0CC0E89440F8C91440F434FE05C0A0
:1024800032FC03C0F32DFE7E4F2E892C44FE95C0F6
:10249000FE01EC0DF11D8081803309F087C0242DF1
:1024A000297E422E842D8870582E43FC95C040FE14
:1024B0008FC09C2C821418F42C0C922C981844FE7B
:1024C00091C0B70180E390E00E941E1342FE09C054
:1024D00088E790E041FE02C088E590E0B7010E94E5
:1024E0001E13C91408F48AC0CA94D12C9FEFC91ACC
:1024F000D90ACA0CDB1CF60182916F01B70190E08A
:102500000E941E13AC14BD04B1F74FCF60817181DE
:10251000072E000C880B990B0E5F1F4F92CFD32C08
:10252000E894D4F82AE030E0853739F1232D297F6B
:10253000D22E8F3601F148F48835A9F0F701868153
:1025400097812B96E2E10C94C813803749F08837C5
:10255000A9F7D4FE02C06894D2F820E130E00DC0A3
:102560006894D4F8F6CF34FE03C0822F8660D82E4C
:1025700020E132E002C028E030E0F801D7FE0FC0D1
:1025800060817181828193810C5F1F4FA5010E9440
:102590004E13C82ECA183D2CE89437F867CF6081D7
:1025A000718190E080E00E5F1F4FF0CF42FC02C0CF
:1025B000839478CF8394839475CF842D867809F49F
:1025C00071CFF6CFB70180E290E00E941E13839492
:1025D0008214C0F3512C73CF522C5818821408F473
:1025E0006ECFF8CF842D867809F47BCF8BE241FE45
:1025F00080E247FC8DE2B70190E071CFB70180E344
:1026000090E00E941E139A946CCF8FEF9FEF99CFAA
:10261000FC010590615070400110D8F780959095AD
:102620008E0F9F1F0895FC016150704001900110B2
:10263000D8F7809590958E0F9F1F08950F931F9345
:10264000CF93DF93182F092FEB018B8181FD09C0F8
:102650001FEF0FEF812F902FDF91CF911F910F91DF
:10266000089582FF14C02E813F818C819D8128179F
:1026700039073CF4E881F981CF0101969983888379
:1026800010838E819F8101969F838E83E3CFE8859F
:10269000F985812F0995892BA1F3DACFFA01AA27B1
:1026A000283051F1203181F1E8946F936E7F6E5F95
:1026B0007F4F8F4F9F4FAF4FB1E03ED0B4E03CD043
:1026C000670F781F891F9A1FA11D680F791F8A1F26
:1026D000911DA11D6A0F711D811D911DA11D20D08D
:1026E00009F468943F912AE0269F11243019305D47
:1026F0003193DEF6CF010895462F4770405D419338
:10270000B3E00FD0C9F7F6CF462F4F70405D4A3384
:1027100018F0495D31FD4052419302D0A9F7EACF4C
:10272000B4E0A6959795879577956795BA95C9F77B
:1027300000976105710508959B01AC010A2E06946E
:102740005795479537952795BA95C9F7620F731F27
:10275000841F951FA01D08952F923F924F925F9264
:102760006F927F928F929F92AF92BF92CF92DF92A1
:10277000EF92FF920F931F93CF93DF93CDB7DEB706
:10278000CA1BDB0B0FB6F894DEBF0FBECDBF09949A
:102790002A88398848885F846E847D848C849B84F1
:1027A000AA84B984C884DF80EE80FD800C811B81FF
:1027B000AA81B981CE0FD11D0FB6F894DEBF0FBE2E
:0A27C000CDBFED010895F894FFCF9E
:1027CA001F10101E11111E001F10101010101000E3
:1027DA000E0A0A0A0A0A0E111515150E1515150004
:1027EA0011111113151911001511111315191100D1
:1027FA0007090909090919001F11111111111100FD
:10280A00111111110F011E000E1515150E040400E9
:10281A001212121212121F01111111110F010100CD
:10282A001515151515151F001515151515151F0163
:10283A001808080E09090E001111111915151900A9
:10284A000808080E09090E001E01011F01011E00D9
:10285A001215151D151512000F11110F050911007A
:10286A0000000000001F0E04040E1F0000000000FC
:10287A0001000100010001080706050403020141E5
:10288A000042010245033304054B064D484F0750E9
:10289A0043540809580A0B0C0D0E0F10111213009D
:1028AA000020204155544F57494E44494E47202055
:1028BA00202020202020000000000000000000004E
:1028CA000000000000012020504F5320434F4E5477
:1028DA00524F4C2020202020202020000000000001
:1028EA0000000000000000000002002020545552A1
:1028FA004E533A20202530336420202020202020E7
:10290A0000253033640000FE040100E703010201E0
:10291A002020535445503A20302E2530346420204C
:10292A00202020202000253034640000F904010012
:10293A00C800320400202053504545443A2020253F
:10294A0030336420202020202020002530336400EA
:10295A0000B20101002C0101040120204C4159451B
:10296A0052533A2025303264202020202020200093
:10297A00253032640000B001010063000106002026
:10298A0020444952454354494F4E203E3E3E202062
:10299A0020202020000000000000000000000000AD
:1029AA0000000601202053544152542020202020A8
:1029BA0020202020202020202000000000000000ED
:1029CA00000000000000000800202043414E43455B
:1029DA004C20202020202020202020202020000001
:1029EA000000000000000000000000000801202094
:1029FA0020202020202020202020202020202020CD
:102A0A00202020000000000000000000000000005C
:102A1A00000A002020534820504F533A20252B30DB
:102A2A00346420202020202000252B303464000A22
:102A3A000519FCE703010A0120204C4120504F539D
:102A4A003A20252B30346420202020202000252BFA
:102A5A0030346400080519FCE703010C00202053F8
:102A6A0054504D554C3A20253033642020202020E4
:102A7A00202000253033640000B401010064000105
:102A8A000C0120204241434B2020202020202020DE
:102A9A00202020202020200000000000000000004C
:102AAA0000000000000E0054253033642F25303317
:102ABA0064204C253032642F253032640000000037
:102ACA00000000000000000000000E0153502530F5
:102ADA003364205354302E253034642020202020A3
:102AEA0020000000000000000000000000000010AC
:102AFA00004155544F57494E44494E4720444F4E82
:102B0A0045202020202000000000000000000000D6
:102B1A00000000001001505245535320434F4E54B9
:102B2A00494E55452020202020202000000000008A
:102B3A0000000000000000000000000000A40104E2
:102B4A00013101F101620140015401000000008BD2
:102B5A00030401A502A402000000002C040401A53C
:102B6A0002A4025374617274000D0A0025303364A2
:102B7A00002530326400505245535320434F4E547F
:102B8A00494E55452020004155544F57494E444916
:082B9A004E4720444F4E450058
:00000001FF
